{
  "contractName": "DQuiz",
  "abi": [
    {
      "constant": true,
      "inputs": [],
      "name": "lastByte32",
      "outputs": [
        {
          "name": "",
          "type": "bytes32"
        }
      ],
      "payable": false,
      "stateMutability": "view",
      "type": "function"
    },
    {
      "constant": true,
      "inputs": [
        {
          "name": "",
          "type": "bytes32"
        }
      ],
      "name": "quizList",
      "outputs": [
        {
          "name": "name",
          "type": "string"
        },
        {
          "name": "description",
          "type": "string"
        },
        {
          "name": "startTime",
          "type": "uint256"
        },
        {
          "name": "timeToAnswer",
          "type": "uint256"
        },
        {
          "name": "timeToFreezeAnswer",
          "type": "uint256"
        },
        {
          "name": "enterFees",
          "type": "uint256"
        },
        {
          "name": "host",
          "type": "address"
        },
        {
          "name": "totalQuestions",
          "type": "uint8"
        },
        {
          "name": "currentQuestionIndex",
          "type": "uint8"
        },
        {
          "name": "totalParticipants",
          "type": "uint256"
        },
        {
          "name": "totalReward",
          "type": "uint256"
        }
      ],
      "payable": false,
      "stateMutability": "view",
      "type": "function"
    },
    {
      "inputs": [],
      "payable": false,
      "stateMutability": "nonpayable",
      "type": "constructor"
    },
    {
      "constant": false,
      "inputs": [
        {
          "name": "name",
          "type": "string"
        },
        {
          "name": "description",
          "type": "string"
        },
        {
          "name": "enterFees",
          "type": "uint256"
        },
        {
          "name": "startTime",
          "type": "uint256"
        },
        {
          "name": "timeToAnswer",
          "type": "uint256"
        },
        {
          "name": "timeToFreezeAnswer",
          "type": "uint256"
        },
        {
          "name": "totalQuestions",
          "type": "uint8"
        }
      ],
      "name": "createQuiz",
      "outputs": [],
      "payable": false,
      "stateMutability": "nonpayable",
      "type": "function"
    },
    {
      "constant": false,
      "inputs": [
        {
          "name": "quizName",
          "type": "string"
        },
        {
          "name": "questionString",
          "type": "string"
        },
        {
          "name": "options",
          "type": "string"
        }
      ],
      "name": "addQuestion",
      "outputs": [],
      "payable": false,
      "stateMutability": "nonpayable",
      "type": "function"
    },
    {
      "constant": false,
      "inputs": [
        {
          "name": "quizName",
          "type": "string"
        },
        {
          "name": "answerKey",
          "type": "uint8"
        }
      ],
      "name": "revealAnswer",
      "outputs": [],
      "payable": false,
      "stateMutability": "nonpayable",
      "type": "function"
    },
    {
      "constant": false,
      "inputs": [
        {
          "name": "quizName",
          "type": "string"
        }
      ],
      "name": "enterQuiz",
      "outputs": [],
      "payable": true,
      "stateMutability": "payable",
      "type": "function"
    },
    {
      "constant": false,
      "inputs": [
        {
          "name": "quizName",
          "type": "string"
        },
        {
          "name": "answerKey",
          "type": "uint8"
        }
      ],
      "name": "submitAnswer",
      "outputs": [],
      "payable": false,
      "stateMutability": "nonpayable",
      "type": "function"
    },
    {
      "constant": false,
      "inputs": [
        {
          "name": "quizName",
          "type": "string"
        }
      ],
      "name": "validateRecentAnswer",
      "outputs": [],
      "payable": false,
      "stateMutability": "nonpayable",
      "type": "function"
    },
    {
      "constant": true,
      "inputs": [
        {
          "name": "quizName",
          "type": "string"
        }
      ],
      "name": "getQuizNameByte32",
      "outputs": [
        {
          "name": "name",
          "type": "string"
        },
        {
          "name": "description",
          "type": "string"
        },
        {
          "name": "host",
          "type": "address"
        }
      ],
      "payable": false,
      "stateMutability": "view",
      "type": "function"
    },
    {
      "constant": true,
      "inputs": [
        {
          "name": "quizName",
          "type": "string"
        }
      ],
      "name": "amIEligible",
      "outputs": [
        {
          "name": "",
          "type": "bool"
        }
      ],
      "payable": false,
      "stateMutability": "view",
      "type": "function"
    }
  ],
  "bytecode": "0x608060405234801561001057600080fd5b50611d54806100206000396000f3006080604052600436106100a4576000357c0100000000000000000000000000000000000000000000000000000000900463ffffffff16806324a7d63e146100a957806342decc891461011f5780634887c45a1461015257806351f3990e146102d35780635cacf730146103545780636619bfda146104385780637c31a2d01461052d5780638cd0101d14610589578063dca8bfa114610716578063fec3672e1461078c575b600080fd5b3480156100b557600080fd5b5061011d600480360381019080803590602001908201803590602001908080601f0160208091040260200160405190810160405280939291908181526020018383808284378201915050505050509192919290803560ff1690602001909291905050506107f5565b005b34801561012b57600080fd5b50610134610ab1565b60405180826000191660001916815260200191505060405180910390f35b34801561015e57600080fd5b506101b9600480360381019080803590602001908201803590602001908080601f0160208091040260200160405190810160405280939291908181526020018383808284378201915050505050509192919290505050610ab7565b6040518080602001806020018473ffffffffffffffffffffffffffffffffffffffff1673ffffffffffffffffffffffffffffffffffffffff168152602001838103835286818151815260200191508051906020019080838360005b8381101561022f578082015181840152602081019050610214565b50505050905090810190601f16801561025c5780820380516001836020036101000a031916815260200191505b50838103825285818151815260200191508051906020019080838360005b8381101561029557808201518184015260208101905061027a565b50505050905090810190601f1680156102c25780820380516001836020036101000a031916815260200191505b509550505050505060405180910390f35b3480156102df57600080fd5b5061033a600480360381019080803590602001908201803590602001908080601f0160208091040260200160405190810160405280939291908181526020018383808284378201915050505050509192919290505050610d4c565b604051808215151515815260200191505060405180910390f35b34801561036057600080fd5b50610436600480360381019080803590602001908201803590602001908080601f0160208091040260200160405190810160405280939291908181526020018383808284378201915050505050509192919290803590602001908201803590602001908080601f016020809104026020016040519081016040528093929190818152602001838380828437820191505050505050919291929080359060200190929190803590602001909291908035906020019092919080359060200190929190803560ff169060200190929190505050610e43565b005b34801561044457600080fd5b5061052b600480360381019080803590602001908201803590602001908080601f0160208091040260200160405190810160405280939291908181526020018383808284378201915050505050509192919290803590602001908201803590602001908080601f0160208091040260200160405190810160405280939291908181526020018383808284378201915050505050509192919290803590602001908201803590602001908080601f01602080910402602001604051908101604052809392919081815260200183838082843782019150505050505091929192905050506110a9565b005b610587600480360381019080803590602001908201803590602001908080601f0160208091040260200160405190810160405280939291908181526020018383808284378201915050505050509192919290505050611308565b005b34801561059557600080fd5b506105b8600480360381019080803560001916906020019092919050505061155c565b6040518080602001806020018c81526020018b81526020018a81526020018981526020018873ffffffffffffffffffffffffffffffffffffffff1673ffffffffffffffffffffffffffffffffffffffff1681526020018760ff1660ff1681526020018660ff1660ff16815260200185815260200184815260200183810383528e818151815260200191508051906020019080838360005b8381101561066a57808201518184015260208101905061064f565b50505050905090810190601f1680156106975780820380516001836020036101000a031916815260200191505b5083810382528d818151815260200191508051906020019080838360005b838110156106d05780820151818401526020810190506106b5565b50505050905090810190601f1680156106fd5780820380516001836020036101000a031916815260200191505b509d505050505050505050505050505060405180910390f35b34801561072257600080fd5b5061078a600480360381019080803590602001908201803590602001908080601f0160208091040260200160405190810160405280939291908181526020018383808284378201915050505050509192919290803560ff169060200190929190505050611720565b005b34801561079857600080fd5b506107f3600480360381019080803590602001908201803590602001908080601f0160208091040260200160405190810160405280939291908181526020018383808284378201915050505050509192919290505050611832565b005b60008061080184611ac5565b9150600080836000191660001916815260200190815260200160002060080160003373ffffffffffffffffffffffffffffffffffffffff1673ffffffffffffffffffffffffffffffffffffffff16815260200190815260200160002060000160009054906101000a900460ff16151561087957600080fd5b600080836000191660001916815260200190815260200160002060060160159054906101000a900460ff16905060018160ff1614151561094b576000806000846000191660001916815260200190815260200160002060080160003373ffffffffffffffffffffffffffffffffffffffff1673ffffffffffffffffffffffffffffffffffffffff16815260200190815260200160002060010160006002840360ff1660ff16815260200190815260200160002060009054906101000a900460ff1660ff161415151561094a57600080fd5b5b600080836000191660001916815260200190815260200160002060080160003373ffffffffffffffffffffffffffffffffffffffff1673ffffffffffffffffffffffffffffffffffffffff16815260200190815260200160002060020160009054906101000a900460ff1615156109c157600080fd5b60008083600019166000191681526020019081526020016000206007016001820360ff168154811015156109f157fe5b906000526020600020906003020160020160019054906101000a900460ff161515610a1b57600080fd5b82600080846000191660001916815260200190815260200160002060080160003373ffffffffffffffffffffffffffffffffffffffff1673ffffffffffffffffffffffffffffffffffffffff16815260200190815260200160002060010160006001840360ff1660ff16815260200190815260200160002060006101000a81548160ff021916908360ff16021790555050505050565b60015481565b606080600080846040516020018082805190602001908083835b602083101515610af65780518252602082019150602081019050602083039250610ad1565b6001836020036101000a0380198251168184511680821785525050505050509050019150506040516020818303038152906040526040518082805190602001908083835b602083101515610b5f5780518252602082019150602081019050602083039250610b3a565b6001836020036101000a0380198251168184511680821785525050505050509050019150506040518091039020905060008082600019166000191681526020019081526020016000206000016000808360001916600019168152602001908152602001600020600101600080846000191660001916815260200190815260200160002060060160009054906101000a900473ffffffffffffffffffffffffffffffffffffffff16828054600181600116156101000203166002900480601f016020809104026020016040519081016040528092919081815260200182805460018160011615610100020316600290048015610c9b5780601f10610c7057610100808354040283529160200191610c9b565b820191906000526020600020905b815481529060010190602001808311610c7e57829003601f168201915b50505050509250818054600181600116156101000203166002900480601f016020809104026020016040519081016040528092919081815260200182805460018160011615610100020316600290048015610d375780601f10610d0c57610100808354040283529160200191610d37565b820191906000526020600020905b815481529060010190602001808311610d1a57829003601f168201915b50505050509150935093509350509193909250565b600080610d5883611ac5565b9050600080826000191660001916815260200190815260200160002060080160003373ffffffffffffffffffffffffffffffffffffffff1673ffffffffffffffffffffffffffffffffffffffff16815260200190815260200160002060000160009054906101000a900460ff161515610dd057600080fd5b600080826000191660001916815260200190815260200160002060080160003373ffffffffffffffffffffffffffffffffffffffff1673ffffffffffffffffffffffffffffffffffffffff16815260200190815260200160002060020160009054906101000a900460ff16915050919050565b6000876040516020018082805190602001908083835b602083101515610e7e5780518252602082019150602081019050602083039250610e59565b6001836020036101000a0380198251168184511680821785525050505050509050019150506040516020818303038152906040526040518082805190602001908083835b602083101515610ee75780518252602082019150602081019050602083039250610ec2565b6001836020036101000a0380198251168184511680821785525050505050509050019150506040518091039020905080600181600019169055508760008083600019166000191681526020019081526020016000206000019080519060200190610f52929190611ba2565b508660008083600019166000191681526020019081526020016000206001019080519060200190610f84929190611ba2565b508560008083600019166000191681526020019081526020016000206005018190555084600080836000191660001916815260200190815260200160002060020181905550836000808360001916600019168152602001908152602001600020600301819055508260008083600019166000191681526020019081526020016000206004018190555081600080836000191660001916815260200190815260200160002060060160146101000a81548160ff021916908360ff16021790555033600080836000191660001916815260200190815260200160002060060160006101000a81548173ffffffffffffffffffffffffffffffffffffffff021916908373ffffffffffffffffffffffffffffffffffffffff1602179055505050505050505050565b60006110b3611c22565b6110bb611c3c565b6110c486611ac5565b9250600080846000191660001916815260200190815260200160002060060160149054906101000a900460ff1660ff16600080856000191660001916815260200190815260200160002060060160159054906101000a900460ff1660ff1610151561112e57600080fd5b600080846000191660001916815260200190815260200160002060060160009054906101000a900473ffffffffffffffffffffffffffffffffffffffff1673ffffffffffffffffffffffffffffffffffffffff163373ffffffffffffffffffffffffffffffffffffffff161415156111a557600080fd5b6000808460001916600019168152602001908152602001600020600601601581819054906101000a900460ff168092919060010191906101000a81548160ff021916908360ff160217905550506040805190810160405280868152602001858152509150606060405190810160405280838152602001600060ff16815260200160011515815250905060008084600019166000191681526020019081526020016000206007018190806001815401808255809150509060018203906000526020600020906003020160009091929091909150600082015181600001600082015181600001908051906020019061129c929190611c69565b5060208201518160010190805190602001906112b9929190611c69565b50505060208201518160020160006101000a81548160ff021916908360ff16021790555060408201518160020160016101000a81548160ff021916908315150217905550505050505050505050565b600061131382611ac5565b905080600019166113d860008084600019166000191681526020019081526020016000206000018054600181600116156101000203166002900480601f0160208091040260200160405190810160405280929190818152602001828054600181600116156101000203166002900480156113ce5780601f106113a3576101008083540402835291602001916113ce565b820191906000526020600020905b8154815290600101906020018083116113b157829003601f168201915b5050505050611ac5565b600019161415156113e857600080fd5b600080826000191660001916815260200190815260200160002060050154341015151561141457600080fd5b6001600080836000191660001916815260200190815260200160002060080160003373ffffffffffffffffffffffffffffffffffffffff1673ffffffffffffffffffffffffffffffffffffffff16815260200190815260200160002060000160006101000a81548160ff0219169083151502179055506001600080836000191660001916815260200190815260200160002060080160003373ffffffffffffffffffffffffffffffffffffffff1673ffffffffffffffffffffffffffffffffffffffff16815260200190815260200160002060020160006101000a81548160ff021916908315150217905550346000808360001916600019168152602001908152602001600020600a01600082825401925050819055506000808260001916600019168152602001908152602001600020600901600081548092919060010191905055505050565b6000602052806000526040600020600091509050806000018054600181600116156101000203166002900480601f0160208091040260200160405190810160405280929190818152602001828054600181600116156101000203166002900480156116085780601f106115dd57610100808354040283529160200191611608565b820191906000526020600020905b8154815290600101906020018083116115eb57829003601f168201915b505050505090806001018054600181600116156101000203166002900480601f0160208091040260200160405190810160405280929190818152602001828054600181600116156101000203166002900480156116a65780601f1061167b576101008083540402835291602001916116a6565b820191906000526020600020905b81548152906001019060200180831161168957829003601f168201915b5050505050908060020154908060030154908060040154908060050154908060060160009054906101000a900473ffffffffffffffffffffffffffffffffffffffff16908060060160149054906101000a900460ff16908060060160159054906101000a900460ff169080600901549080600a015490508b565b60008061172c84611ac5565b91503373ffffffffffffffffffffffffffffffffffffffff16600080846000191660001916815260200190815260200160002060060160009054906101000a900473ffffffffffffffffffffffffffffffffffffffff1673ffffffffffffffffffffffffffffffffffffffff161415156117a557600080fd5b600080836000191660001916815260200190815260200160002060060160159054906101000a900460ff1690508260008084600019166000191681526020019081526020016000206007016001830360ff1681548110151561180357fe5b906000526020600020906003020160020160006101000a81548160ff021916908360ff16021790555050505050565b60008060008061184185611ac5565b9350600080856000191660001916815260200190815260200160002060080160003373ffffffffffffffffffffffffffffffffffffffff1673ffffffffffffffffffffffffffffffffffffffff16815260200190815260200160002060000160009054906101000a900460ff1615156118b957600080fd5b600080856000191660001916815260200190815260200160002060060160159054906101000a900460ff169250600080856000191660001916815260200190815260200160002060080160003373ffffffffffffffffffffffffffffffffffffffff1673ffffffffffffffffffffffffffffffffffffffff16815260200190815260200160002060010160006001850360ff1660ff16815260200190815260200160002060009054906101000a900460ff16915060008085600019166000191681526020019081526020016000206007016001840360ff1681548110151561199d57fe5b906000526020600020906003020160020160009054906101000a900460ff1690508060ff168260ff161415611a47576001600080866000191660001916815260200190815260200160002060080160003373ffffffffffffffffffffffffffffffffffffffff1673ffffffffffffffffffffffffffffffffffffffff16815260200190815260200160002060020160006101000a81548160ff021916908315150217905550611abe565b6000806000866000191660001916815260200190815260200160002060080160003373ffffffffffffffffffffffffffffffffffffffff1673ffffffffffffffffffffffffffffffffffffffff16815260200190815260200160002060020160006101000a81548160ff0219169083151502179055505b5050505050565b600080826040516020018082805190602001908083835b602083101515611b015780518252602082019150602081019050602083039250611adc565b6001836020036101000a0380198251168184511680821785525050505050509050019150506040516020818303038152906040526040518082805190602001908083835b602083101515611b6a5780518252602082019150602081019050602083039250611b45565b6001836020036101000a0380198251168184511680821785525050505050509050019150506040518091039020905080915050919050565b828054600181600116156101000203166002900490600052602060002090601f016020900481019282601f10611be357805160ff1916838001178555611c11565b82800160010185558215611c11579182015b82811115611c10578251825591602001919060010190611bf5565b5b509050611c1e9190611ce9565b5090565b604080519081016040528060608152602001606081525090565b608060405190810160405280611c50611d0e565b8152602001600060ff1681526020016000151581525090565b828054600181600116156101000203166002900490600052602060002090601f016020900481019282601f10611caa57805160ff1916838001178555611cd8565b82800160010185558215611cd8579182015b82811115611cd7578251825591602001919060010190611cbc565b5b509050611ce59190611ce9565b5090565b611d0b91905b80821115611d07576000816000905550600101611cef565b5090565b90565b6040805190810160405280606081526020016060815250905600a165627a7a7230582056c2dba29d9b2648d38be67bb58eaa2ef8363a9f815a865f98794a80b5fb32fc0029",
  "source": "pragma solidity ^0.4.24;\n\n\ncontract DQuiz {\n\n  struct Question {\n    string questionString;\n    string options;\n  }\n\n  struct QuestionAnswer {\n    Question question;\n    uint8 answerKey;\n    bool isQuestionOut;\n  }\n\n  struct Participant {\n    bool isEntered;\n    mapping(uint8 => uint8) answerList; // key is questionIndex and value is answerKey\n    bool isEligible;\n  }\n\n  struct QuizData {\n    string name;\n    string description;\n    uint startTime;\n    uint timeToAnswer;\n    uint timeToFreezeAnswer;\n    uint enterFees;\n    address host;\n    uint8 totalQuestions;\n    uint8 currentQuestionIndex;\n    QuestionAnswer[] questionAnswerList;\n    mapping(address => Participant) participantList;\n    uint totalParticipants;\n    uint totalReward;\n  }\n\n  mapping(bytes32 => QuizData) public quizList;\n\n  bytes32 public lastByte32;\n\n  constructor () public {\n\n  }\n\n  function createQuiz(string name, \n    string description, \n    uint enterFees, \n    uint startTime, \n    uint timeToAnswer, \n    uint timeToFreezeAnswer, \n    uint8 totalQuestions\n    ) public {\n      bytes32 key = keccak256(abi.encodePacked(name));\n      lastByte32 = key;\n      quizList[key].name = name;\n      quizList[key].description = description;\n      quizList[key].enterFees = enterFees;\n      quizList[key].startTime = startTime;\n      quizList[key].timeToAnswer = timeToAnswer;\n\n      quizList[key].timeToFreezeAnswer = timeToFreezeAnswer;\n      quizList[key].totalQuestions = totalQuestions;\n      quizList[key].host = msg.sender;\n  }\n\n// Host related functions\n\n  function addQuestion(string quizName, \n  string questionString, \n  string options) public {\n    bytes32 key = stringToByte32(quizName);\n    require(quizList[key].currentQuestionIndex < quizList[key].totalQuestions);\n    require(msg.sender == quizList[key].host);\n\n    quizList[key].currentQuestionIndex++;\n\n    Question memory newQuestion = Question({\n      questionString: questionString,\n      options: options\n    });\n\n    QuestionAnswer memory newQuestionAnswer = QuestionAnswer({\n      question: newQuestion,\n      answerKey: 0,\n      isQuestionOut: true\n    });\n\n    quizList[key].questionAnswerList.push(newQuestionAnswer);\n  }\n\n  function revealAnswer(string quizName, uint8 answerKey) public {\n    bytes32 key = stringToByte32(quizName);\n    require(quizList[key].host == msg.sender);\n\n    uint8 currentQuestionIndex = quizList[key].currentQuestionIndex;\n\n    quizList[key].questionAnswerList[currentQuestionIndex - 1].answerKey = answerKey;\n  }\n\n// Pariticipant related functions\n\n  function enterQuiz(string quizName) public payable {\n\n    bytes32 key = stringToByte32(quizName);\n    require(stringToByte32(quizList[key].name) == key);\n    require(msg.value >= quizList[key].enterFees);\n\n    quizList[key].participantList[msg.sender].isEntered = true;\n    quizList[key].participantList[msg.sender].isEligible = true;\n    quizList[key].totalReward += msg.value;\n    quizList[key].totalParticipants++;\n  }\n\n  function submitAnswer(string quizName, uint8 answerKey) public {\n\n    bytes32 key = stringToByte32(quizName);\n    require(quizList[key].participantList[msg.sender].isEntered);\n    uint8 currentQuestionIndex = quizList[key].currentQuestionIndex;\n    \n    if(currentQuestionIndex != 1){\n      require(quizList[key].participantList[msg.sender].answerList[currentQuestionIndex - 2] != 0);\n    }\n    \n    require(quizList[key].participantList[msg.sender].isEligible);\n\n    require(quizList[key].questionAnswerList[currentQuestionIndex - 1].isQuestionOut);\n\n    quizList[key].participantList[msg.sender].answerList[currentQuestionIndex - 1] = answerKey;\n  }\n\n  function validateRecentAnswer(string quizName) public {\n\n    bytes32 key = stringToByte32(quizName);\n    require(quizList[key].participantList[msg.sender].isEntered);\n\n    uint8 currentQuestionIndex = quizList[key].currentQuestionIndex;\n\n    uint8 myAnswer = quizList[key].participantList[msg.sender].answerList[currentQuestionIndex -1 ];\n    uint8 correctAnswer = quizList[key].questionAnswerList[currentQuestionIndex - 1].answerKey;\n\n    if(myAnswer == correctAnswer) {\n      quizList[key].participantList[msg.sender].isEligible = true;\n    } else {\n      quizList[key].participantList[msg.sender].isEligible = false;        \n    }\n  }\n\n  function getQuizNameByte32(string quizName) public view returns (string name,\n    string description,\n    address host) {\n\n    bytes32 key = keccak256(abi.encodePacked(quizName));\n    return(quizList[key].name, quizList[key].description, quizList[key].host);\n  }\n\n  function amIEligible(string quizName) public view returns(bool) {\n    bytes32 key = stringToByte32(quizName);\n    require(quizList[key].participantList[msg.sender].isEntered);\n\n    return quizList[key].participantList[msg.sender].isEligible;\n  }\n\n  function stringToByte32(string s) internal pure returns(bytes32){\n\n    bytes32 converted = keccak256(abi.encodePacked(s));\n    return converted;\n  }\n\n}",
  "sourcePath": "/home/akshay/Desktop/Workspace/Blockchain/DQuiz/contracts/DQuiz.sol",
  "compiler": {
    "name": "solc",
    "version": "0.4.24+commit.e67f0147.Emscripten.clang"
  },
  "schemaVersion": "2.0.1",
  "updatedAt": "2018-06-30T06:51:34.251Z"
}