{
  "contractName": "DQuiz",
  "abi": [
    {
      "constant": true,
      "inputs": [],
      "name": "lastByte32",
      "outputs": [
        {
          "name": "",
          "type": "bytes32"
        }
      ],
      "payable": false,
      "stateMutability": "view",
      "type": "function"
    },
    {
      "constant": true,
      "inputs": [
        {
          "name": "",
          "type": "bytes32"
        }
      ],
      "name": "quizList",
      "outputs": [
        {
          "name": "name",
          "type": "string"
        },
        {
          "name": "description",
          "type": "string"
        },
        {
          "name": "startTime",
          "type": "uint256"
        },
        {
          "name": "timeToAnswer",
          "type": "uint256"
        },
        {
          "name": "timeToFreezeAnswer",
          "type": "uint256"
        },
        {
          "name": "enterFees",
          "type": "uint256"
        },
        {
          "name": "host",
          "type": "address"
        },
        {
          "name": "totalQuestions",
          "type": "uint8"
        },
        {
          "name": "currentQuestionIndex",
          "type": "uint8"
        },
        {
          "name": "totalParticipants",
          "type": "uint256"
        },
        {
          "name": "totalWinCount",
          "type": "uint256"
        },
        {
          "name": "totalReward",
          "type": "uint256"
        }
      ],
      "payable": false,
      "stateMutability": "view",
      "type": "function"
    },
    {
      "inputs": [],
      "payable": false,
      "stateMutability": "nonpayable",
      "type": "constructor"
    },
    {
      "constant": false,
      "inputs": [
        {
          "name": "name",
          "type": "string"
        },
        {
          "name": "description",
          "type": "string"
        },
        {
          "name": "enterFees",
          "type": "uint256"
        },
        {
          "name": "startTime",
          "type": "uint256"
        },
        {
          "name": "timeToAnswer",
          "type": "uint256"
        },
        {
          "name": "timeToFreezeAnswer",
          "type": "uint256"
        },
        {
          "name": "totalQuestions",
          "type": "uint8"
        }
      ],
      "name": "createQuiz",
      "outputs": [],
      "payable": false,
      "stateMutability": "nonpayable",
      "type": "function"
    },
    {
      "constant": false,
      "inputs": [
        {
          "name": "quizName",
          "type": "string"
        },
        {
          "name": "questionString",
          "type": "string"
        },
        {
          "name": "options",
          "type": "string"
        }
      ],
      "name": "addQuestion",
      "outputs": [],
      "payable": false,
      "stateMutability": "nonpayable",
      "type": "function"
    },
    {
      "constant": false,
      "inputs": [
        {
          "name": "quizName",
          "type": "string"
        },
        {
          "name": "answerKey",
          "type": "uint8"
        }
      ],
      "name": "revealAnswer",
      "outputs": [],
      "payable": false,
      "stateMutability": "nonpayable",
      "type": "function"
    },
    {
      "constant": false,
      "inputs": [
        {
          "name": "quizName",
          "type": "string"
        }
      ],
      "name": "enterQuiz",
      "outputs": [],
      "payable": true,
      "stateMutability": "payable",
      "type": "function"
    },
    {
      "constant": false,
      "inputs": [
        {
          "name": "quizName",
          "type": "string"
        },
        {
          "name": "answerKey",
          "type": "uint8"
        }
      ],
      "name": "submitAnswer",
      "outputs": [],
      "payable": false,
      "stateMutability": "nonpayable",
      "type": "function"
    },
    {
      "constant": false,
      "inputs": [
        {
          "name": "quizName",
          "type": "string"
        }
      ],
      "name": "validateRecentAnswer",
      "outputs": [],
      "payable": false,
      "stateMutability": "nonpayable",
      "type": "function"
    },
    {
      "constant": false,
      "inputs": [
        {
          "name": "quizName",
          "type": "string"
        }
      ],
      "name": "getMoneyIfWon",
      "outputs": [
        {
          "name": "",
          "type": "uint256"
        }
      ],
      "payable": false,
      "stateMutability": "nonpayable",
      "type": "function"
    },
    {
      "constant": true,
      "inputs": [
        {
          "name": "quizName",
          "type": "string"
        }
      ],
      "name": "amIEligible",
      "outputs": [
        {
          "name": "",
          "type": "bool"
        }
      ],
      "payable": false,
      "stateMutability": "view",
      "type": "function"
    },
    {
      "constant": true,
      "inputs": [
        {
          "name": "quizName",
          "type": "string"
        }
      ],
      "name": "getQuizBasicInfo",
      "outputs": [
        {
          "name": "",
          "type": "string"
        },
        {
          "name": "",
          "type": "string"
        },
        {
          "name": "",
          "type": "uint256"
        },
        {
          "name": "",
          "type": "uint256"
        },
        {
          "name": "",
          "type": "uint256"
        },
        {
          "name": "",
          "type": "uint256"
        },
        {
          "name": "",
          "type": "address"
        },
        {
          "name": "",
          "type": "uint8"
        }
      ],
      "payable": false,
      "stateMutability": "view",
      "type": "function"
    },
    {
      "constant": true,
      "inputs": [
        {
          "name": "quizName",
          "type": "string"
        }
      ],
      "name": "getQuizDynamicInfo",
      "outputs": [
        {
          "name": "",
          "type": "uint256"
        },
        {
          "name": "",
          "type": "uint256"
        }
      ],
      "payable": false,
      "stateMutability": "view",
      "type": "function"
    },
    {
      "constant": true,
      "inputs": [
        {
          "name": "quizName",
          "type": "string"
        }
      ],
      "name": "getQuizWinCount",
      "outputs": [
        {
          "name": "",
          "type": "uint256"
        }
      ],
      "payable": false,
      "stateMutability": "view",
      "type": "function"
    },
    {
      "constant": true,
      "inputs": [
        {
          "name": "quizName",
          "type": "string"
        }
      ],
      "name": "getCurrentQuestion",
      "outputs": [
        {
          "name": "",
          "type": "string"
        },
        {
          "name": "",
          "type": "string"
        },
        {
          "name": "",
          "type": "uint8"
        }
      ],
      "payable": false,
      "stateMutability": "view",
      "type": "function"
    }
  ],
  "bytecode": "0x608060405234801561001057600080fd5b5061306c806100206000396000f3006080604052600436106100d0576000357c0100000000000000000000000000000000000000000000000000000000900463ffffffff1680630d6c894f146100d55780631196d73c1461015957806324a7d63e146101d657806342decc891461024c57806351f3990e1461027f578063591f430d146103005780635cacf7301461037d5780636619bfda146104615780637c31a2d0146105565780638cd0101d146105b2578063ab41d25d14610746578063d3c66c6a146108f0578063dca8bfa114610a4b578063fec3672e14610ac1575b600080fd5b3480156100e157600080fd5b5061013c600480360381019080803590602001908201803590602001908080601f0160208091040260200160405190810160405280939291908181526020018383808284378201915050505050509192919290505050610b2a565b604051808381526020018281526020019250505060405180910390f35b34801561016557600080fd5b506101c0600480360381019080803590602001908201803590602001908080601f0160208091040260200160405190810160405280939291908181526020018383808284378201915050505050509192919290505050610f8c565b6040518082815260200191505060405180910390f35b3480156101e257600080fd5b5061024a600480360381019080803590602001908201803590602001908080601f0160208091040260200160405190810160405280939291908181526020018383808284378201915050505050509192919290803560ff1690602001909291905050506110ab565b005b34801561025857600080fd5b5061026161141f565b60405180826000191660001916815260200191505060405180910390f35b34801561028b57600080fd5b506102e6600480360381019080803590602001908201803590602001908080601f0160208091040260200160405190810160405280939291908181526020018383808284378201915050505050509192919290505050611425565b604051808215151515815260200191505060405180910390f35b34801561030c57600080fd5b50610367600480360381019080803590602001908201803590602001908080601f016020809104026020016040519081016040528093929190818152602001838380828437820191505050505050919291929050505061151c565b6040518082815260200191505060405180910390f35b34801561038957600080fd5b5061045f600480360381019080803590602001908201803590602001908080601f0160208091040260200160405190810160405280939291908181526020018383808284378201915050505050509192919290803590602001908201803590602001908080601f016020809104026020016040519081016040528093929190818152602001838380828437820191505050505050919291929080359060200190929190803590602001909291908035906020019092919080359060200190929190803560ff169060200190929190505050611550565b005b34801561046d57600080fd5b50610554600480360381019080803590602001908201803590602001908080601f0160208091040260200160405190810160405280939291908181526020018383808284378201915050505050509192919290803590602001908201803590602001908080601f0160208091040260200160405190810160405280939291908181526020018383808284378201915050505050509192919290803590602001908201803590602001908080601f01602080910402602001604051908101604052809392919081815260200183838082843782019150505050505091929192905050506117b6565b005b6105b0600480360381019080803590602001908201803590602001908080601f0160208091040260200160405190810160405280939291908181526020018383808284378201915050505050509192919290505050611add565b005b3480156105be57600080fd5b506105e16004803603810190808035600019169060200190929190505050611d31565b6040518080602001806020018d81526020018c81526020018b81526020018a81526020018973ffffffffffffffffffffffffffffffffffffffff1673ffffffffffffffffffffffffffffffffffffffff1681526020018860ff1660ff1681526020018760ff1660ff16815260200186815260200185815260200184815260200183810383528f818151815260200191508051906020019080838360005b8381101561069957808201518184015260208101905061067e565b50505050905090810190601f1680156106c65780820380516001836020036101000a031916815260200191505b5083810382528e818151815260200191508051906020019080838360005b838110156106ff5780820151818401526020810190506106e4565b50505050905090810190601f16801561072c5780820380516001836020036101000a031916815260200191505b509e50505050505050505050505050505060405180910390f35b34801561075257600080fd5b506107ad600480360381019080803590602001908201803590602001908080601f0160208091040260200160405190810160405280939291908181526020018383808284378201915050505050509192919290505050611efb565b6040518080602001806020018981526020018881526020018781526020018681526020018573ffffffffffffffffffffffffffffffffffffffff1673ffffffffffffffffffffffffffffffffffffffff1681526020018460ff1660ff16815260200183810383528b818151815260200191508051906020019080838360005b8381101561084757808201518184015260208101905061082c565b50505050905090810190601f1680156108745780820380516001836020036101000a031916815260200191505b5083810382528a818151815260200191508051906020019080838360005b838110156108ad578082015181840152602081019050610892565b50505050905090810190601f1680156108da5780820380516001836020036101000a031916815260200191505b509a505050505050505050505060405180910390f35b3480156108fc57600080fd5b50610957600480360381019080803590602001908201803590602001908080601f016020809104026020016040519081016040528093929190818152602001838380828437820191505050505050919291929050505061239a565b6040518080602001806020018460ff1660ff168152602001838103835286818151815260200191508051906020019080838360005b838110156109a757808201518184015260208101905061098c565b50505050905090810190601f1680156109d45780820380516001836020036101000a031916815260200191505b50838103825285818151815260200191508051906020019080838360005b83811015610a0d5780820151818401526020810190506109f2565b50505050905090810190601f168015610a3a5780820380516001836020036101000a031916815260200191505b509550505050505060405180910390f35b348015610a5757600080fd5b50610abf600480360381019080803590602001908201803590602001908080601f0160208091040260200160405190810160405280939291908181526020018383808284378201915050505050509192919290803560ff16906020019092919050505061273a565b005b348015610acd57600080fd5b50610b28600480360381019080803590602001908201803590602001908080601f01602080910402602001604051908101604052809392919081815260200183838082843782019150505050505091929192905050506128cf565b005b6000806000610b37612e35565b610b4085612d58565b915060008083600019166000191681526020019081526020016000206101a06040519081016040529081600082018054600181600116156101000203166002900480601f016020809104026020016040519081016040528092919081815260200182805460018160011615610100020316600290048015610c025780601f10610bd757610100808354040283529160200191610c02565b820191906000526020600020905b815481529060010190602001808311610be557829003601f168201915b50505050508152602001600182018054600181600116156101000203166002900480601f016020809104026020016040519081016040528092919081815260200182805460018160011615610100020316600290048015610ca45780601f10610c7957610100808354040283529160200191610ca4565b820191906000526020600020905b815481529060010190602001808311610c8757829003601f168201915b50505050508152602001600282015481526020016003820154815260200160048201548152602001600582015481526020016006820160009054906101000a900473ffffffffffffffffffffffffffffffffffffffff1673ffffffffffffffffffffffffffffffffffffffff1673ffffffffffffffffffffffffffffffffffffffff1681526020016006820160149054906101000a900460ff1660ff1660ff1681526020016006820160159054906101000a900460ff1660ff1660ff16815260200160078201805480602002602001604051908101604052809291908181526020016000905b82821015610f4d57838290600052602060002090600302016060604051908101604052908160008201604080519081016040529081600082018054600181600116156101000203166002900480601f016020809104026020016040519081016040528092919081815260200182805460018160011615610100020316600290048015610e575780601f10610e2c57610100808354040283529160200191610e57565b820191906000526020600020905b815481529060010190602001808311610e3a57829003601f168201915b50505050508152602001600182018054600181600116156101000203166002900480601f016020809104026020016040519081016040528092919081815260200182805460018160011615610100020316600290048015610ef95780601f10610ece57610100808354040283529160200191610ef9565b820191906000526020600020905b815481529060010190602001808311610edc57829003601f168201915b50505050508152505081526020016002820160009054906101000a900460ff1660ff1660ff1681526020016002820160019054906101000a900460ff16151515158152505081526020019060010190610d8a565b50505050815260200160098201548152602001600a8201548152602001600b820154815250509050806101400151816101800151935093505050915091565b6000806000610f9a84612d58565b9150600080836000191660001916815260200190815260200160002060080160003373ffffffffffffffffffffffffffffffffffffffff1673ffffffffffffffffffffffffffffffffffffffff16815260200190815260200160002060020160019054906101000a900460ff16151561101257600080fd5b6000808360001916600019168152602001908152602001600020600a01546000808460001916600019168152602001908152602001600020600b015481151561105757fe5b0490503373ffffffffffffffffffffffffffffffffffffffff166108fc829081150290604051600060405180830381858888f193505050501580156110a0573d6000803e3d6000fd5b508092505050919050565b60008060018360ff16101580156110c6575060048360ff1611155b15156110d157600080fd5b6110da84612d58565b9150600080836000191660001916815260200190815260200160002060080160003373ffffffffffffffffffffffffffffffffffffffff1673ffffffffffffffffffffffffffffffffffffffff16815260200190815260200160002060000160009054906101000a900460ff16151561115257600080fd5b600080836000191660001916815260200190815260200160002060060160159054906101000a900460ff16905060018160ff16141515611223576009600080846000191660001916815260200190815260200160002060080160003373ffffffffffffffffffffffffffffffffffffffff1673ffffffffffffffffffffffffffffffffffffffff16815260200190815260200160002060010160006002840360ff1660ff16815260200190815260200160002060009054906101000a900460ff1660ff1614151561122257600080fd5b5b600080836000191660001916815260200190815260200160002060080160003373ffffffffffffffffffffffffffffffffffffffff1673ffffffffffffffffffffffffffffffffffffffff16815260200190815260200160002060020160009054906101000a900460ff16151561129957600080fd5b60008083600019166000191681526020019081526020016000206007016001820360ff168154811015156112c957fe5b906000526020600020906003020160020160019054906101000a900460ff1615156112f357600080fd5b6000806000846000191660001916815260200190815260200160002060080160003373ffffffffffffffffffffffffffffffffffffffff1673ffffffffffffffffffffffffffffffffffffffff16815260200190815260200160002060010160006001840360ff1660ff16815260200190815260200160002060009054906101000a900460ff1660ff1614151561138957600080fd5b82600080846000191660001916815260200190815260200160002060080160003373ffffffffffffffffffffffffffffffffffffffff1673ffffffffffffffffffffffffffffffffffffffff16815260200190815260200160002060010160006001840360ff1660ff16815260200190815260200160002060006101000a81548160ff021916908360ff16021790555050505050565b60015481565b60008061143183612d58565b9050600080826000191660001916815260200190815260200160002060080160003373ffffffffffffffffffffffffffffffffffffffff1673ffffffffffffffffffffffffffffffffffffffff16815260200190815260200160002060000160009054906101000a900460ff1615156114a957600080fd5b600080826000191660001916815260200190815260200160002060080160003373ffffffffffffffffffffffffffffffffffffffff1673ffffffffffffffffffffffffffffffffffffffff16815260200190815260200160002060020160009054906101000a900460ff16915050919050565b60008061152883612d58565b90506000808260001916600019168152602001908152602001600020600a0154915050919050565b6000876040516020018082805190602001908083835b60208310151561158b5780518252602082019150602081019050602083039250611566565b6001836020036101000a0380198251168184511680821785525050505050509050019150506040516020818303038152906040526040518082805190602001908083835b6020831015156115f457805182526020820191506020810190506020830392506115cf565b6001836020036101000a038019825116818451168082178552505050505050905001915050604051809103902090508060018160001916905550876000808360001916600019168152602001908152602001600020600001908051906020019061165f929190612eba565b508660008083600019166000191681526020019081526020016000206001019080519060200190611691929190612eba565b508560008083600019166000191681526020019081526020016000206005018190555084600080836000191660001916815260200190815260200160002060020181905550836000808360001916600019168152602001908152602001600020600301819055508260008083600019166000191681526020019081526020016000206004018190555081600080836000191660001916815260200190815260200160002060060160146101000a81548160ff021916908360ff16021790555033600080836000191660001916815260200190815260200160002060060160006101000a81548173ffffffffffffffffffffffffffffffffffffffff021916908373ffffffffffffffffffffffffffffffffffffffff1602179055505050505050505050565b6000806117c1612f3a565b6117c9612f54565b6117d287612d58565b9350600080856000191660001916815260200190815260200160002060060160149054906101000a900460ff1660ff16600080866000191660001916815260200190815260200160002060060160159054906101000a900460ff1660ff1610151561183c57600080fd5b600080856000191660001916815260200190815260200160002060060160009054906101000a900473ffffffffffffffffffffffffffffffffffffffff1673ffffffffffffffffffffffffffffffffffffffff163373ffffffffffffffffffffffffffffffffffffffff161415156118b357600080fd5b6000806000866000191660001916815260200190815260200160002060060160159054906101000a900460ff1660ff161415156119795760008085600019166000191681526020019081526020016000206007016001600080876000191660001916815260200190815260200160002060060160159054906101000a900460ff160360ff1681548110151561194457fe5b906000526020600020906003020160020160009054906101000a900460ff16925060008360ff161415151561197857600080fd5b5b6000808560001916600019168152602001908152602001600020600601601581819054906101000a900460ff168092919060010191906101000a81548160ff021916908360ff160217905550506040805190810160405280878152602001868152509150606060405190810160405280838152602001600060ff168152602001600115158152509050600080856000191660001916815260200190815260200160002060070181908060018154018082558091505090600182039060005260206000209060030201600090919290919091506000820151816000016000820151816000019080519060200190611a70929190612f81565b506020820151816001019080519060200190611a8d929190612f81565b50505060208201518160020160006101000a81548160ff021916908360ff16021790555060408201518160020160016101000a81548160ff02191690831515021790555050505050505050505050565b6000611ae882612d58565b90508060001916611bad60008084600019166000191681526020019081526020016000206000018054600181600116156101000203166002900480601f016020809104026020016040519081016040528092919081815260200182805460018160011615610100020316600290048015611ba35780601f10611b7857610100808354040283529160200191611ba3565b820191906000526020600020905b815481529060010190602001808311611b8657829003601f168201915b5050505050612d58565b60001916141515611bbd57600080fd5b6000808260001916600019168152602001908152602001600020600501543410151515611be957600080fd5b6001600080836000191660001916815260200190815260200160002060080160003373ffffffffffffffffffffffffffffffffffffffff1673ffffffffffffffffffffffffffffffffffffffff16815260200190815260200160002060000160006101000a81548160ff0219169083151502179055506001600080836000191660001916815260200190815260200160002060080160003373ffffffffffffffffffffffffffffffffffffffff1673ffffffffffffffffffffffffffffffffffffffff16815260200190815260200160002060020160006101000a81548160ff021916908315150217905550346000808360001916600019168152602001908152602001600020600b01600082825401925050819055506000808260001916600019168152602001908152602001600020600901600081548092919060010191905055505050565b6000602052806000526040600020600091509050806000018054600181600116156101000203166002900480601f016020809104026020016040519081016040528092919081815260200182805460018160011615610100020316600290048015611ddd5780601f10611db257610100808354040283529160200191611ddd565b820191906000526020600020905b815481529060010190602001808311611dc057829003601f168201915b505050505090806001018054600181600116156101000203166002900480601f016020809104026020016040519081016040528092919081815260200182805460018160011615610100020316600290048015611e7b5780601f10611e5057610100808354040283529160200191611e7b565b820191906000526020600020905b815481529060010190602001808311611e5e57829003601f168201915b5050505050908060020154908060030154908060040154908060050154908060060160009054906101000a900473ffffffffffffffffffffffffffffffffffffffff16908060060160149054906101000a900460ff16908060060160159054906101000a900460ff169080600901549080600a01549080600b015490508c565b6060806000806000806000806000611f11612e35565b611f1a8b612d58565b915060008083600019166000191681526020019081526020016000206101a06040519081016040529081600082018054600181600116156101000203166002900480601f016020809104026020016040519081016040528092919081815260200182805460018160011615610100020316600290048015611fdc5780601f10611fb157610100808354040283529160200191611fdc565b820191906000526020600020905b815481529060010190602001808311611fbf57829003601f168201915b50505050508152602001600182018054600181600116156101000203166002900480601f01602080910402602001604051908101604052809291908181526020018280546001816001161561010002031660029004801561207e5780601f106120535761010080835404028352916020019161207e565b820191906000526020600020905b81548152906001019060200180831161206157829003601f168201915b50505050508152602001600282015481526020016003820154815260200160048201548152602001600582015481526020016006820160009054906101000a900473ffffffffffffffffffffffffffffffffffffffff1673ffffffffffffffffffffffffffffffffffffffff1673ffffffffffffffffffffffffffffffffffffffff1681526020016006820160149054906101000a900460ff1660ff1660ff1681526020016006820160159054906101000a900460ff1660ff1660ff16815260200160078201805480602002602001604051908101604052809291908181526020016000905b8282101561232757838290600052602060002090600302016060604051908101604052908160008201604080519081016040529081600082018054600181600116156101000203166002900480601f0160208091040260200160405190810160405280929190818152602001828054600181600116156101000203166002900480156122315780601f1061220657610100808354040283529160200191612231565b820191906000526020600020905b81548152906001019060200180831161221457829003601f168201915b50505050508152602001600182018054600181600116156101000203166002900480601f0160208091040260200160405190810160405280929190818152602001828054600181600116156101000203166002900480156122d35780601f106122a8576101008083540402835291602001916122d3565b820191906000526020600020905b8154815290600101906020018083116122b657829003601f168201915b50505050508152505081526020016002820160009054906101000a900460ff1660ff1660ff1681526020016002820160019054906101000a900460ff16151515158152505081526020019060010190612164565b50505050815260200160098201548152602001600a8201548152602001600b820154815250509050806000015181602001518260400151836060015184608001518560a001518660c001518760e00151879750869650995099509950995099509950995099505050919395975091939597565b60608060008060006123ab86612d58565b9150600080836000191660001916815260200190815260200160002060080160003373ffffffffffffffffffffffffffffffffffffffff1673ffffffffffffffffffffffffffffffffffffffff16815260200190815260200160002060000160009054906101000a900460ff16151561242357600080fd5b600080836000191660001916815260200190815260200160002060080160003373ffffffffffffffffffffffffffffffffffffffff1673ffffffffffffffffffffffffffffffffffffffff16815260200190815260200160002060020160009054906101000a900460ff16151561249957600080fd5b600080836000191660001916815260200190815260200160002060060160159054906101000a900460ff16905060018160ff1614151561256a576009600080846000191660001916815260200190815260200160002060080160003373ffffffffffffffffffffffffffffffffffffffff1673ffffffffffffffffffffffffffffffffffffffff16815260200190815260200160002060010160006002840360ff1660ff16815260200190815260200160002060009054906101000a900460ff1660ff1614151561256957600080fd5b5b60008083600019166000191681526020019081526020016000206007016001820360ff1681548110151561259a57fe5b906000526020600020906003020160000160000160008084600019166000191681526020019081526020016000206007016001830360ff168154811015156125de57fe5b906000526020600020906003020160000160010182828054600181600116156101000203166002900480601f0160208091040260200160405190810160405280929190818152602001828054600181600116156101000203166002900480156126885780601f1061265d57610100808354040283529160200191612688565b820191906000526020600020905b81548152906001019060200180831161266b57829003601f168201915b50505050509250818054600181600116156101000203166002900480601f0160208091040260200160405190810160405280929190818152602001828054600181600116156101000203166002900480156127245780601f106126f957610100808354040283529160200191612724565b820191906000526020600020905b81548152906001019060200180831161270757829003601f168201915b5050505050915094509450945050509193909250565b60008060018360ff1610158015612755575060048360ff1611155b151561276057600080fd5b61276984612d58565b91503373ffffffffffffffffffffffffffffffffffffffff16600080846000191660001916815260200190815260200160002060060160009054906101000a900473ffffffffffffffffffffffffffffffffffffffff1673ffffffffffffffffffffffffffffffffffffffff161415156127e257600080fd5b600080836000191660001916815260200190815260200160002060060160159054906101000a900460ff169050600080600084600019166000191681526020019081526020016000206007016001830360ff1681548110151561284157fe5b906000526020600020906003020160020160009054906101000a900460ff1660ff1614151561286f57600080fd5b8260008084600019166000191681526020019081526020016000206007016001830360ff168154811015156128a057fe5b906000526020600020906003020160020160006101000a81548160ff021916908360ff16021790555050505050565b6000806000806128de85612d58565b9350600080856000191660001916815260200190815260200160002060080160003373ffffffffffffffffffffffffffffffffffffffff1673ffffffffffffffffffffffffffffffffffffffff16815260200190815260200160002060000160009054906101000a900460ff16151561295657600080fd5b600080856000191660001916815260200190815260200160002060080160003373ffffffffffffffffffffffffffffffffffffffff1673ffffffffffffffffffffffffffffffffffffffff16815260200190815260200160002060020160009054906101000a900460ff1615156129cc57600080fd5b600080856000191660001916815260200190815260200160002060060160159054906101000a900460ff169250600080856000191660001916815260200190815260200160002060080160003373ffffffffffffffffffffffffffffffffffffffff1673ffffffffffffffffffffffffffffffffffffffff16815260200190815260200160002060010160006001850360ff1660ff16815260200190815260200160002060009054906101000a900460ff16915060008085600019166000191681526020019081526020016000206007016001840360ff16815481101515612ab057fe5b906000526020600020906003020160020160009054906101000a900460ff16905060008160ff1614151515612ae457600080fd5b8060ff168260ff161415612cda576001600080866000191660001916815260200190815260200160002060080160003373ffffffffffffffffffffffffffffffffffffffff1673ffffffffffffffffffffffffffffffffffffffff16815260200190815260200160002060020160006101000a81548160ff0219169083151502179055506009600080866000191660001916815260200190815260200160002060080160003373ffffffffffffffffffffffffffffffffffffffff1673ffffffffffffffffffffffffffffffffffffffff16815260200190815260200160002060010160006001860360ff1660ff16815260200190815260200160002060006101000a81548160ff021916908360ff160217905550600080856000191660001916815260200190815260200160002060060160149054906101000a900460ff1660ff168360ff161415612cd5576001600080866000191660001916815260200190815260200160002060080160003373ffffffffffffffffffffffffffffffffffffffff1673ffffffffffffffffffffffffffffffffffffffff16815260200190815260200160002060020160016101000a81548160ff0219169083151502179055506000808560001916600019168152602001908152602001600020600a01600081548092919060010191905055505b612d51565b6000806000866000191660001916815260200190815260200160002060080160003373ffffffffffffffffffffffffffffffffffffffff1673ffffffffffffffffffffffffffffffffffffffff16815260200190815260200160002060020160006101000a81548160ff0219169083151502179055505b5050505050565b600080826040516020018082805190602001908083835b602083101515612d945780518252602082019150602081019050602083039250612d6f565b6001836020036101000a0380198251168184511680821785525050505050509050019150506040516020818303038152906040526040518082805190602001908083835b602083101515612dfd5780518252602082019150602081019050602083039250612dd8565b6001836020036101000a0380198251168184511680821785525050505050509050019150506040518091039020905080915050919050565b6101a060405190810160405280606081526020016060815260200160008152602001600081526020016000815260200160008152602001600073ffffffffffffffffffffffffffffffffffffffff168152602001600060ff168152602001600060ff168152602001606081526020016000815260200160008152602001600081525090565b828054600181600116156101000203166002900490600052602060002090601f016020900481019282601f10612efb57805160ff1916838001178555612f29565b82800160010185558215612f29579182015b82811115612f28578251825591602001919060010190612f0d565b5b509050612f369190613001565b5090565b604080519081016040528060608152602001606081525090565b608060405190810160405280612f68613026565b8152602001600060ff1681526020016000151581525090565b828054600181600116156101000203166002900490600052602060002090601f016020900481019282601f10612fc257805160ff1916838001178555612ff0565b82800160010185558215612ff0579182015b82811115612fef578251825591602001919060010190612fd4565b5b509050612ffd9190613001565b5090565b61302391905b8082111561301f576000816000905550600101613007565b5090565b90565b6040805190810160405280606081526020016060815250905600a165627a7a723058203b9bbc68d66eef16f1bbe1dfcec43d7c27e724c3b7d68611ad87607658812d350029",
  "source": "pragma solidity ^0.4.24;\n\n\ncontract DQuiz {\n\n  struct Question {\n    string questionString;\n    string options;\n  }\n\n  struct QuestionAnswer {\n    Question question;\n    uint8 answerKey;\n    bool isQuestionOut;\n  }\n\n  struct Participant {\n    bool isEntered;\n    mapping(uint8 => uint8) answerList; // key is questionIndex and value is answerKey\n    bool isEligible;\n    bool isWon;\n  }\n\n  struct QuizData {\n    string name;\n    string description;\n    uint startTime;\n    uint timeToAnswer;\n    uint timeToFreezeAnswer;\n    uint enterFees;\n    address host;\n    uint8 totalQuestions;\n    uint8 currentQuestionIndex;\n    QuestionAnswer[] questionAnswerList;\n    mapping(address => Participant) participantList;\n    uint totalParticipants;\n    uint totalWinCount;\n    uint totalReward;\n  }\n\n  mapping(bytes32 => QuizData) public quizList;\n\n  bytes32 public lastByte32;\n\n  constructor () public {\n\n  }\n\n  function createQuiz(string name, \n    string description, \n    uint enterFees, \n    uint startTime, \n    uint timeToAnswer, \n    uint timeToFreezeAnswer, \n    uint8 totalQuestions\n    ) public {\n      bytes32 key = keccak256(abi.encodePacked(name));\n      lastByte32 = key;\n      quizList[key].name = name;\n      quizList[key].description = description;\n      quizList[key].enterFees = enterFees;\n      quizList[key].startTime = startTime;\n      quizList[key].timeToAnswer = timeToAnswer;\n\n      quizList[key].timeToFreezeAnswer = timeToFreezeAnswer;\n      quizList[key].totalQuestions = totalQuestions;\n      quizList[key].host = msg.sender;\n  }\n\n// Host related functions\n\n function addQuestion(string quizName, \n  string questionString, \n  string options) public {\n    bytes32 key = stringToByte32(quizName);\n    require(quizList[key].currentQuestionIndex < quizList[key].totalQuestions);\n    require(msg.sender == quizList[key].host);\n\n    if(quizList[key].currentQuestionIndex != 0){\n      uint8 correctAnswer = quizList[key].questionAnswerList[\n        quizList[key].currentQuestionIndex - 1 ]\n        .answerKey;\n      require(correctAnswer != 0); // -> This is to check if host had added the answer for prev question, then only let him proceed\n    }\n   \n    quizList[key].currentQuestionIndex++;\n\n    Question memory newQuestion = Question({\n      questionString: questionString,\n      options: options\n    });\n\n    QuestionAnswer memory newQuestionAnswer = QuestionAnswer({\n      question: newQuestion,\n      answerKey: 0,\n      isQuestionOut: true\n    });\n\n    quizList[key].questionAnswerList.push(newQuestionAnswer);\n  }\n\n  function revealAnswer(string quizName, uint8 answerKey) public {\n    require(answerKey >= 1 && answerKey <=4 ); // answerKey should be only between 1 and 4.\n    bytes32 key = stringToByte32(quizName);\n    require(quizList[key].host == msg.sender);\n\n    uint8 currentQuestionIndex = quizList[key].currentQuestionIndex;\n\n    require(quizList[key].questionAnswerList[currentQuestionIndex - 1].answerKey == 0); // -> This is to see if host don't reveal answer twice \n\n    quizList[key].questionAnswerList[currentQuestionIndex - 1].answerKey = answerKey;\n  }\n\n// Participant related functions\n\n  function enterQuiz(string quizName) public payable {\n\n    bytes32 key = stringToByte32(quizName);\n    require(stringToByte32(quizList[key].name) == key);\n    require(msg.value >= quizList[key].enterFees);\n\n    quizList[key].participantList[msg.sender].isEntered = true;\n    quizList[key].participantList[msg.sender].isEligible = true;\n    quizList[key].totalReward += msg.value;\n    quizList[key].totalParticipants++;\n  }\n\n  function submitAnswer(string quizName, uint8 answerKey) public {\n    require(answerKey >= 1 && answerKey <=4 ); // answerKey should be only between 1 and 4.\n\n    bytes32 key = stringToByte32(quizName);\n    require(quizList[key].participantList[msg.sender].isEntered);\n    uint8 currentQuestionIndex = quizList[key].currentQuestionIndex;\n    \n    if(currentQuestionIndex != 1){\n      require(quizList[key].participantList[msg.sender].answerList[currentQuestionIndex - 2] == 9); // This is to check if pcpnt validated prev answer\n    }\n    \n    require(quizList[key].participantList[msg.sender].isEligible);\n\n    require(quizList[key].questionAnswerList[currentQuestionIndex - 1].isQuestionOut); // So that pcpnt can answer only if question is out\n    require(quizList[key].participantList[msg.sender].answerList[currentQuestionIndex - 1] == 0); // So that pcpnt won't answer it twice\n\n    quizList[key].participantList[msg.sender].answerList[currentQuestionIndex - 1] = answerKey;\n  }\n\n  function validateRecentAnswer(string quizName) public {\n    bytes32 key = stringToByte32(quizName);\n    require(quizList[key].participantList[msg.sender].isEntered);\n    require(quizList[key].participantList[msg.sender].isEligible);\n\n    uint8 currentQuestionIndex = quizList[key].currentQuestionIndex;\n\n    uint8 myAnswer = quizList[key].participantList[msg.sender].answerList[currentQuestionIndex - 1];\n    uint8 correctAnswer = quizList[key].questionAnswerList[currentQuestionIndex - 1].answerKey;\n\n    require(correctAnswer != 0); // This means either host has not revealed the answer or he is just goofing around\n\n    if(myAnswer == correctAnswer) {\n      quizList[key].participantList[msg.sender].isEligible = true;\n      quizList[key].participantList[msg.sender].answerList[currentQuestionIndex - 1] = 9; // 9 is for validated answer\n      if(currentQuestionIndex == quizList[key].totalQuestions){\n        quizList[key].participantList[msg.sender].isWon = true;\n        quizList[key].totalWinCount++;\n      }\n    } else {\n      quizList[key].participantList[msg.sender].isEligible = false;        \n    }\n  }\n\n  function getMoneyIfWon(string quizName) public returns(uint256){\n    bytes32 key = stringToByte32(quizName);\n    require(quizList[key].participantList[msg.sender].isWon);\n    uint myReward = quizList[key].totalReward / quizList[key].totalWinCount;\n    msg.sender.transfer(myReward);\n    return myReward;\n    // delete quizList[key].participantList[msg.sender];\n  }\n\n  function amIEligible(string quizName) public view returns(bool) {\n    bytes32 key = stringToByte32(quizName);\n    require(quizList[key].participantList[msg.sender].isEntered);\n\n    return quizList[key].participantList[msg.sender].isEligible;\n  }\n\n// General Methods can be called by anyone irrespective of host or participants or anyone\n  function getQuizBasicInfo(string quizName) public view returns ( string,\n    string,\n    uint,\n    uint,\n    uint,\n    uint,\n    address,\n    uint8 ) {\n\n      bytes32 key = stringToByte32(quizName);\n      QuizData memory quiz = quizList[key];\n\n      return(quiz.name,\n      quiz.description,\n      quiz.startTime,\n      quiz.timeToAnswer,\n      quiz.timeToFreezeAnswer,\n      quiz.enterFees,\n      quiz.host,\n      quiz.totalQuestions);\n  }\n\n  function getQuizDynamicInfo(string quizName) public view returns ( uint,\n  uint ) {\n\n    bytes32 key = stringToByte32(quizName);\n    QuizData memory quiz = quizList[key];\n\n    return(quiz.totalParticipants,\n    quiz.totalReward);\n  }\n\n  function getQuizWinCount(string quizName) public view returns (uint) {\n    bytes32 key = stringToByte32(quizName);\n    return(quizList[key].totalWinCount);\n  }\n\n  function getCurrentQuestion(string quizName) public view returns(string,\n  string,\n  uint8 ) {\n    bytes32 key = stringToByte32(quizName);\n    require(quizList[key].participantList[msg.sender].isEntered);\n    require(quizList[key].participantList[msg.sender].isEligible);\n    \n    uint8 currentQuestionIndex = quizList[key].currentQuestionIndex;\n\n    if(currentQuestionIndex != 1) {\n      require(quizList[key].participantList[msg.sender].answerList[currentQuestionIndex - 2] == 9); // This is to check if pcpnt validated prev answer\n    }\n    \n    return(\n      quizList[key].questionAnswerList[currentQuestionIndex - 1].question.questionString,\n      quizList[key].questionAnswerList[currentQuestionIndex - 1].question.options,\n      currentQuestionIndex\n    );\n  }  \n\n// Utility Methods (Mostly for internal purpose)\n  function stringToByte32(string s) internal pure returns(bytes32){\n\n    bytes32 converted = keccak256(abi.encodePacked(s));\n    return converted;\n  }\n\n}",
  "sourcePath": "/home/akshay/Desktop/Workspace/Blockchain/DQuiz/contracts/DQuiz.sol",
  "compiler": {
    "name": "solc",
    "version": "0.4.24+commit.e67f0147.Emscripten.clang"
  },
  "schemaVersion": "2.0.1",
  "updatedAt": "2018-07-03T04:34:36.984Z"
}